{
  "contractName": "Defi",
  "abi": [
    {
      "inputs": [
        {
          "internalType": "contract Token",
          "name": "_token",
          "type": "address"
        }
      ],
      "stateMutability": "nonpayable",
      "type": "constructor"
    },
    {
      "anonymous": false,
      "inputs": [
        {
          "indexed": true,
          "internalType": "address",
          "name": "user",
          "type": "address"
        },
        {
          "indexed": false,
          "internalType": "uint256",
          "name": "ethAmount",
          "type": "uint256"
        },
        {
          "indexed": false,
          "internalType": "uint256",
          "name": "timeStart",
          "type": "uint256"
        }
      ],
      "name": "Deposit",
      "type": "event"
    },
    {
      "anonymous": false,
      "inputs": [
        {
          "indexed": true,
          "internalType": "address",
          "name": "user",
          "type": "address"
        },
        {
          "indexed": false,
          "internalType": "uint256",
          "name": "collateralEthAmount",
          "type": "uint256"
        },
        {
          "indexed": false,
          "internalType": "uint256",
          "name": "loanedAmount",
          "type": "uint256"
        }
      ],
      "name": "Loan",
      "type": "event"
    },
    {
      "anonymous": false,
      "inputs": [
        {
          "indexed": true,
          "internalType": "address",
          "name": "user",
          "type": "address"
        },
        {
          "indexed": false,
          "internalType": "uint256",
          "name": "fee",
          "type": "uint256"
        }
      ],
      "name": "PayOff",
      "type": "event"
    },
    {
      "anonymous": false,
      "inputs": [
        {
          "indexed": true,
          "internalType": "address",
          "name": "user",
          "type": "address"
        },
        {
          "indexed": false,
          "internalType": "uint256",
          "name": "ethAmount",
          "type": "uint256"
        },
        {
          "indexed": false,
          "internalType": "uint256",
          "name": "depositTime",
          "type": "uint256"
        },
        {
          "indexed": false,
          "internalType": "uint256",
          "name": "interest",
          "type": "uint256"
        }
      ],
      "name": "Withdraw",
      "type": "event"
    },
    {
      "inputs": [
        {
          "internalType": "address",
          "name": "",
          "type": "address"
        }
      ],
      "name": "collateralEth",
      "outputs": [
        {
          "internalType": "uint256",
          "name": "",
          "type": "uint256"
        }
      ],
      "stateMutability": "view",
      "type": "function",
      "constant": true
    },
    {
      "inputs": [
        {
          "internalType": "address",
          "name": "",
          "type": "address"
        }
      ],
      "name": "ethBal",
      "outputs": [
        {
          "internalType": "uint256",
          "name": "",
          "type": "uint256"
        }
      ],
      "stateMutability": "view",
      "type": "function",
      "constant": true
    },
    {
      "inputs": [
        {
          "internalType": "address",
          "name": "",
          "type": "address"
        }
      ],
      "name": "interestStart",
      "outputs": [
        {
          "internalType": "uint256",
          "name": "",
          "type": "uint256"
        }
      ],
      "stateMutability": "view",
      "type": "function",
      "constant": true
    },
    {
      "inputs": [
        {
          "internalType": "address",
          "name": "",
          "type": "address"
        }
      ],
      "name": "isDeposited",
      "outputs": [
        {
          "internalType": "bool",
          "name": "",
          "type": "bool"
        }
      ],
      "stateMutability": "view",
      "type": "function",
      "constant": true
    },
    {
      "inputs": [
        {
          "internalType": "address",
          "name": "",
          "type": "address"
        }
      ],
      "name": "isLoaned",
      "outputs": [
        {
          "internalType": "bool",
          "name": "",
          "type": "bool"
        }
      ],
      "stateMutability": "view",
      "type": "function",
      "constant": true
    },
    {
      "inputs": [],
      "name": "deposit",
      "outputs": [],
      "stateMutability": "payable",
      "type": "function",
      "payable": true
    },
    {
      "inputs": [],
      "name": "withdraw",
      "outputs": [],
      "stateMutability": "nonpayable",
      "type": "function"
    },
    {
      "inputs": [],
      "name": "loan",
      "outputs": [],
      "stateMutability": "payable",
      "type": "function",
      "payable": true
    },
    {
      "inputs": [],
      "name": "payOff",
      "outputs": [],
      "stateMutability": "nonpayable",
      "type": "function"
    }
  ],
  "bytecode": "0x60806040523480156200001157600080fd5b50604051620017bc380380620017bc8339818101604052810190620000379190620000fc565b806000806101000a81548173ffffffffffffffffffffffffffffffffffffffff021916908373ffffffffffffffffffffffffffffffffffffffff160217905550506200012e565b600080fd5b600073ffffffffffffffffffffffffffffffffffffffff82169050919050565b6000620000b08262000083565b9050919050565b6000620000c482620000a3565b9050919050565b620000d681620000b7565b8114620000e257600080fd5b50565b600081519050620000f681620000cb565b92915050565b6000602082840312156200011557620001146200007e565b5b60006200012584828501620000e5565b91505092915050565b61167e806200013e6000396000f3fe6080604052600436106100865760003560e01c80633ccfd60b116100595780633ccfd60b1461017f5780633fac68d51461019657806373732024146101ad578063d0e30db0146101ea578063d285b7b4146101f457610086565b806308f66a8d1461008b57806312ddec06146100c857806322bd0716146101055780632911501214610142575b600080fd5b34801561009757600080fd5b506100b260048036038101906100ad9190611031565b6101fe565b6040516100bf9190611079565b60405180910390f35b3480156100d457600080fd5b506100ef60048036038101906100ea9190611031565b61021e565b6040516100fc91906110ad565b60405180910390f35b34801561011157600080fd5b5061012c60048036038101906101279190611031565b610236565b60405161013991906110ad565b60405180910390f35b34801561014e57600080fd5b5061016960048036038101906101649190611031565b61024e565b60405161017691906110ad565b60405180910390f35b34801561018b57600080fd5b50610194610266565b005b3480156101a257600080fd5b506101ab61064d565b005b3480156101b957600080fd5b506101d460048036038101906101cf9190611031565b6109d9565b6040516101e19190611079565b60405180910390f35b6101f26109f9565b005b6101fc610c9c565b005b60056020528060005260406000206000915054906101000a900460ff1681565b60016020528060005260406000206000915090505481565b60026020528060005260406000206000915090505481565b60036020528060005260406000206000915090505481565b60011515600460003373ffffffffffffffffffffffffffffffffffffffff1673ffffffffffffffffffffffffffffffffffffffff16815260200190815260200160002060009054906101000a900460ff161515146102f9576040517f08c379a00000000000000000000000000000000000000000000000000000000081526004016102f090611125565b60405180910390fd5b6000600160003373ffffffffffffffffffffffffffffffffffffffff1673ffffffffffffffffffffffffffffffffffffffff1681526020019081526020016000205490506000600260003373ffffffffffffffffffffffffffffffffffffffff1673ffffffffffffffffffffffffffffffffffffffff168152602001908152602001600020544261038a9190611174565b90506000662386f26fc10000600160003373ffffffffffffffffffffffffffffffffffffffff1673ffffffffffffffffffffffffffffffffffffffff168152602001908152602001600020546103e091906111d7565b62f1ed306103ee9190611208565b9050600082826103fe9190611208565b90503373ffffffffffffffffffffffffffffffffffffffff166108fc600160003373ffffffffffffffffffffffffffffffffffffffff1673ffffffffffffffffffffffffffffffffffffffff168152602001908152602001600020549081150290604051600060405180830381858888f19350505050158015610485573d6000803e3d6000fd5b5060008054906101000a900473ffffffffffffffffffffffffffffffffffffffff1673ffffffffffffffffffffffffffffffffffffffff166340c10f1933836040518363ffffffff1660e01b81526004016104e1929190611271565b600060405180830381600087803b1580156104fb57600080fd5b505af115801561050f573d6000803e3d6000fd5b505050506000600260003373ffffffffffffffffffffffffffffffffffffffff1673ffffffffffffffffffffffffffffffffffffffff168152602001908152602001600020819055506000600160003373ffffffffffffffffffffffffffffffffffffffff1673ffffffffffffffffffffffffffffffffffffffff168152602001908152602001600020819055506000600460003373ffffffffffffffffffffffffffffffffffffffff1673ffffffffffffffffffffffffffffffffffffffff16815260200190815260200160002060006101000a81548160ff0219169083151502179055503373ffffffffffffffffffffffffffffffffffffffff167f02f25270a4d87bea75db541cdfe559334a275b4a233520ed6c0a2429667cca9485858460405161063f9392919061129a565b60405180910390a250505050565b60011515600560003373ffffffffffffffffffffffffffffffffffffffff1673ffffffffffffffffffffffffffffffffffffffff16815260200190815260200160002060009054906101000a900460ff161515146106e0576040517f08c379a00000000000000000000000000000000000000000000000000000000081526004016106d79061131d565b60405180910390fd5b60008054906101000a900473ffffffffffffffffffffffffffffffffffffffff1673ffffffffffffffffffffffffffffffffffffffff166323b872dd33306002600360003373ffffffffffffffffffffffffffffffffffffffff1673ffffffffffffffffffffffffffffffffffffffff1681526020019081526020016000205461076a91906111d7565b6040518463ffffffff1660e01b81526004016107889392919061133d565b6020604051808303816000875af11580156107a7573d6000803e3d6000fd5b505050506040513d601f19601f820116820180604052508101906107cb91906113a0565b61080a576040517f08c379a000000000000000000000000000000000000000000000000000000000815260040161080190611419565b60405180910390fd5b60006005600360003373ffffffffffffffffffffffffffffffffffffffff1673ffffffffffffffffffffffffffffffffffffffff1681526020019081526020016000205461085891906111d7565b90503373ffffffffffffffffffffffffffffffffffffffff166108fc82600360003373ffffffffffffffffffffffffffffffffffffffff1673ffffffffffffffffffffffffffffffffffffffff168152602001908152602001600020546108bf9190611174565b9081150290604051600060405180830381858888f193505050501580156108ea573d6000803e3d6000fd5b506000600360003373ffffffffffffffffffffffffffffffffffffffff1673ffffffffffffffffffffffffffffffffffffffff168152602001908152602001600020819055506000600560003373ffffffffffffffffffffffffffffffffffffffff1673ffffffffffffffffffffffffffffffffffffffff16815260200190815260200160002060006101000a81548160ff0219169083151502179055503373ffffffffffffffffffffffffffffffffffffffff167ffd9bbd044fa427970e4d882ebbb4a89ce422dc29b23f2777a14a93ecdf42c644826040516109ce91906110ad565b60405180910390a250565b60046020528060005260406000206000915054906101000a900460ff1681565b60001515600460003373ffffffffffffffffffffffffffffffffffffffff1673ffffffffffffffffffffffffffffffffffffffff16815260200190815260200160002060009054906101000a900460ff16151514610a8c576040517f08c379a0000000000000000000000000000000000000000000000000000000008152600401610a83906114ab565b60405180910390fd5b662386f26fc10000341015610ad6576040517f08c379a0000000000000000000000000000000000000000000000000000000008152600401610acd9061153d565b60405180910390fd5b34600160003373ffffffffffffffffffffffffffffffffffffffff1673ffffffffffffffffffffffffffffffffffffffff16815260200190815260200160002054610b21919061155d565b600160003373ffffffffffffffffffffffffffffffffffffffff1673ffffffffffffffffffffffffffffffffffffffff1681526020019081526020016000208190555042600260003373ffffffffffffffffffffffffffffffffffffffff1673ffffffffffffffffffffffffffffffffffffffff16815260200190815260200160002054610baf919061155d565b600260003373ffffffffffffffffffffffffffffffffffffffff1673ffffffffffffffffffffffffffffffffffffffff168152602001908152602001600020819055506001600460003373ffffffffffffffffffffffffffffffffffffffff1673ffffffffffffffffffffffffffffffffffffffff16815260200190815260200160002060006101000a81548160ff0219169083151502179055503373ffffffffffffffffffffffffffffffffffffffff167f90890809c654f11d6e72a28fa60149770a0d11ec6c92319d6ceb2bb0a4ea1a153442604051610c929291906115b3565b60405180910390a2565b60001515600560003373ffffffffffffffffffffffffffffffffffffffff1673ffffffffffffffffffffffffffffffffffffffff16815260200190815260200160002060009054906101000a900460ff16151514610d2f576040517f08c379a0000000000000000000000000000000000000000000000000000000008152600401610d2690611628565b60405180910390fd5b662386f26fc10000341015610d79576040517f08c379a0000000000000000000000000000000000000000000000000000000008152600401610d709061153d565b60405180910390fd5b34600360003373ffffffffffffffffffffffffffffffffffffffff1673ffffffffffffffffffffffffffffffffffffffff16815260200190815260200160002054610dc4919061155d565b600360003373ffffffffffffffffffffffffffffffffffffffff1673ffffffffffffffffffffffffffffffffffffffff1681526020019081526020016000208190555060006002600360003373ffffffffffffffffffffffffffffffffffffffff1673ffffffffffffffffffffffffffffffffffffffff16815260200190815260200160002054610e5591906111d7565b905060008054906101000a900473ffffffffffffffffffffffffffffffffffffffff1673ffffffffffffffffffffffffffffffffffffffff166340c10f1933836040518363ffffffff1660e01b8152600401610eb2929190611271565b600060405180830381600087803b158015610ecc57600080fd5b505af1158015610ee0573d6000803e3d6000fd5b505050506001600560003373ffffffffffffffffffffffffffffffffffffffff1673ffffffffffffffffffffffffffffffffffffffff16815260200190815260200160002060006101000a81548160ff0219169083151502179055503373ffffffffffffffffffffffffffffffffffffffff167fe73e31007d63465eceaabfae515099de1ee3152614bd2824a7e75ce65517ae16600360003373ffffffffffffffffffffffffffffffffffffffff1673ffffffffffffffffffffffffffffffffffffffff1681526020019081526020016000205483604051610fc39291906115b3565b60405180910390a250565b600080fd5b600073ffffffffffffffffffffffffffffffffffffffff82169050919050565b6000610ffe82610fd3565b9050919050565b61100e81610ff3565b811461101957600080fd5b50565b60008135905061102b81611005565b92915050565b60006020828403121561104757611046610fce565b5b60006110558482850161101c565b91505092915050565b60008115159050919050565b6110738161105e565b82525050565b600060208201905061108e600083018461106a565b92915050565b6000819050919050565b6110a781611094565b82525050565b60006020820190506110c2600083018461109e565b92915050565b600082825260208201905092915050565b7f4552524f522e204e4f204445504f534954532048415645204f43435552524544600082015250565b600061110f6020836110c8565b915061111a826110d9565b602082019050919050565b6000602082019050818103600083015261113e81611102565b9050919050565b7f4e487b7100000000000000000000000000000000000000000000000000000000600052601160045260246000fd5b600061117f82611094565b915061118a83611094565b92508282101561119d5761119c611145565b5b828203905092915050565b7f4e487b7100000000000000000000000000000000000000000000000000000000600052601260045260246000fd5b60006111e282611094565b91506111ed83611094565b9250826111fd576111fc6111a8565b5b828204905092915050565b600061121382611094565b915061121e83611094565b9250817fffffffffffffffffffffffffffffffffffffffffffffffffffffffffffffffff048311821515161561125757611256611145565b5b828202905092915050565b61126b81610ff3565b82525050565b60006040820190506112866000830185611262565b611293602083018461109e565b9392505050565b60006060820190506112af600083018661109e565b6112bc602083018561109e565b6112c9604083018461109e565b949350505050565b7f4552524f522e2041204c4f414e204953204e4f54204143544956450000000000600082015250565b6000611307601b836110c8565b9150611312826112d1565b602082019050919050565b60006020820190508181036000830152611336816112fa565b9050919050565b60006060820190506113526000830186611262565b61135f6020830185611262565b61136c604083018461109e565b949350505050565b61137d8161105e565b811461138857600080fd5b50565b60008151905061139a81611374565b92915050565b6000602082840312156113b6576113b5610fce565b5b60006113c48482850161138b565b91505092915050565b7f4552524f522e20544f4b454e53204e4f54205245545249455641424c45000000600082015250565b6000611403601d836110c8565b915061140e826113cd565b602082019050919050565b60006020820190508181036000830152611432816113f6565b9050919050565b7f4552524f522e2041204445504f53495420495320414c5245414459204143544960008201527f5645000000000000000000000000000000000000000000000000000000000000602082015250565b60006114956022836110c8565b91506114a082611439565b604082019050919050565b600060208201905081810360008301526114c481611488565b9050919050565b7f4552524f522e20504c4541534520454e5445522041204d494e494d554d204f4660008201527f20302e3031455448000000000000000000000000000000000000000000000000602082015250565b60006115276028836110c8565b9150611532826114cb565b604082019050919050565b600060208201905081810360008301526115568161151a565b9050919050565b600061156882611094565b915061157383611094565b9250827fffffffffffffffffffffffffffffffffffffffffffffffffffffffffffffffff038211156115a8576115a7611145565b5b828201905092915050565b60006040820190506115c8600083018561109e565b6115d5602083018461109e565b9392505050565b7f4552524f522e2041204c4f414e20495320414c52454144592041435449564500600082015250565b6000611612601f836110c8565b915061161d826115dc565b602082019050919050565b6000602082019050818103600083015261164181611605565b905091905056fea26469706673582212208f54f90ec3258b9dc7d00b52b60c7f798d9c2b7ed65660a68d2fc0e89fe003a064736f6c634300080d0033",
  "immutableReferences": {},
  "source": "pragma solidity 0.8.13;\r\n\r\nimport \"./Token.sol\";\r\n\r\ncontract Defi {\r\n\r\n  //Token initialization\r\n  Token private token;\r\n\r\n  //Ethereum balance\r\n  mapping(address => uint) public ethBal;\r\n  //Beginning of interest\r\n  mapping(address => uint) public interestStart;\r\n  //Collateral for loan\r\n  mapping(address => uint) public collateralEth;\r\n  //Deposit status\r\n  mapping(address => bool) public isDeposited;\r\n  //Loan status\r\n  mapping(address => bool) public isLoaned;\r\n\r\n  event Deposit(address indexed user, uint ethAmount, uint timeStart);\r\n  event Withdraw(address indexed user, uint ethAmount, uint depositTime, uint interest);\r\n  event Loan(address indexed user, uint collateralEthAmount, uint loanedAmount);\r\n  event PayOff(address indexed user, uint fee);\r\n\r\n  //Deployed token\r\n  constructor(Token _token) public {\r\n    token = _token;\r\n  }\r\n\r\n  //Deposit ETH\r\n  function deposit() payable public {\r\n    //One deposit at a time\r\n    require(isDeposited[msg.sender] == false, 'ERROR. A DEPOSIT IS ALREADY ACTIVE');\r\n    //Minimum eth deposit\r\n    //1e16 WEI\r\n    require(msg.value>=1e16, 'ERROR. PLEASE ENTER A MINIMUM OF 0.01ETH');\r\n\r\n    //Update eth balance \r\n    ethBal[msg.sender] = ethBal[msg.sender] + msg.value;\r\n    //Update beginning of interest\r\n    interestStart[msg.sender] = interestStart[msg.sender] + block.timestamp;\r\n\r\n    //Return deposit transaction information\r\n    isDeposited[msg.sender] = true;\r\n    emit Deposit(msg.sender, msg.value, block.timestamp);\r\n  }\r\n\r\n  //Withdraw ETH\r\n  function withdraw() public {\r\n    //Can only withdraw if previous deposits exist\r\n    require(isDeposited[msg.sender]==true, 'ERROR. NO DEPOSITS HAVE OCCURRED');\r\n    //Event\r\n    uint userBalance = ethBal[msg.sender];\r\n\r\n    //Time since initial deposit\r\n    uint depositTime = block.timestamp - interestStart[msg.sender];\r\n\r\n    //5e15(5% of 0.01 ETH) / 31 536 000 (seconds in 1 year)\r\n    uint interestPerSecond = 15854896 * (ethBal[msg.sender] / 1e16);\r\n    uint interest = interestPerSecond * depositTime;\r\n\r\n    //Withdraw funds\r\n    payable(msg.sender).transfer(ethBal[msg.sender]);\r\n    //Plus interest\r\n    token.mint(msg.sender, interest);\r\n\r\n    //Reset deposit\r\n    interestStart[msg.sender] = 0;\r\n    ethBal[msg.sender] = 0;\r\n    isDeposited[msg.sender] = false;\r\n\r\n    //Return withdraw transaction information\r\n    emit Withdraw(msg.sender, userBalance, depositTime, interest);\r\n  }\r\n\r\n  //Loan ETH\r\n  function loan() payable public {\r\n    //One loan at a time\r\n    require(isLoaned[msg.sender] == false, 'ERROR. A LOAN IS ALREADY ACTIVE');\r\n    //Minimum collateral\r\n    //1e16 WEI\r\n    require(msg.value>=1e16, 'ERROR. PLEASE ENTER A MINIMUM OF 0.01ETH');\r\n\r\n    //User cannot access collateral until loan is paid off\r\n    collateralEth[msg.sender] = collateralEth[msg.sender] + msg.value;\r\n\r\n    //Tokens minted (50%)\r\n    uint loanTokens = collateralEth[msg.sender] / 2;\r\n\r\n    //Loan token to user from mint\r\n    token.mint(msg.sender, loanTokens);\r\n\r\n    //Return loan transaction information\r\n    isLoaned[msg.sender] = true;\r\n    emit Loan(msg.sender, collateralEth[msg.sender], loanTokens);\r\n  }\r\n\r\n  //Payoff loaned ETH\r\n  function payOff() public {\r\n    //Loan must be active to pay off\r\n    require(isLoaned[msg.sender] == true, 'ERROR. A LOAN IS NOT ACTIVE');\r\n    //Defi must approve transfer\r\n    require(token.transferFrom(msg.sender, address(this), collateralEth[msg.sender]/2), 'ERROR. TOKENS NOT RETRIEVABLE');\r\n    \r\n    //5% fee\r\n    uint fee = collateralEth[msg.sender]/5;\r\n\r\n    //User's collateral minus fee\r\n    payable(msg.sender).transfer(collateralEth[msg.sender]-fee);\r\n\r\n    //Reset loan\r\n    collateralEth[msg.sender] = 0;\r\n    isLoaned[msg.sender] = false;\r\n\r\n    //Return payoff transaction information\r\n    emit PayOff(msg.sender, fee);\r\n  }\r\n}",
  "sourcePath": "C:\\Users\\Ajay\\Documents\\repos\\CMPE 183\\183Project\\contracts\\Defi.sol",
  "compiler": {
    "name": "solc",
    "version": "0.8.13+commit.abaa5c0e.Emscripten.clang"
  },
  "schemaVersion": "3.4.7",
  "updatedAt": "2022-05-16T02:52:21.271Z",
  "networkType": "ethereum",
  "devdoc": {
    "kind": "dev",
    "methods": {},
    "version": 1
  },
  "userdoc": {
    "kind": "user",
    "methods": {},
    "version": 1
  }
}