{
  "contractName": "Defi",
  "abi": [
    {
      "inputs": [
        {
          "internalType": "contract Token",
          "name": "_token",
          "type": "address"
        }
      ],
      "stateMutability": "nonpayable",
      "type": "constructor"
    },
    {
      "anonymous": false,
      "inputs": [
        {
          "indexed": true,
          "internalType": "address",
          "name": "user",
          "type": "address"
        },
        {
          "indexed": false,
          "internalType": "uint256",
          "name": "collateralEthAmount",
          "type": "uint256"
        },
        {
          "indexed": false,
          "internalType": "uint256",
          "name": "borrowedTokenAmount",
          "type": "uint256"
        }
      ],
      "name": "Borrow",
      "type": "event"
    },
    {
      "anonymous": false,
      "inputs": [
        {
          "indexed": true,
          "internalType": "address",
          "name": "user",
          "type": "address"
        },
        {
          "indexed": false,
          "internalType": "uint256",
          "name": "etherAmount",
          "type": "uint256"
        },
        {
          "indexed": false,
          "internalType": "uint256",
          "name": "timeStart",
          "type": "uint256"
        }
      ],
      "name": "Deposit",
      "type": "event"
    },
    {
      "anonymous": false,
      "inputs": [
        {
          "indexed": true,
          "internalType": "address",
          "name": "user",
          "type": "address"
        },
        {
          "indexed": false,
          "internalType": "uint256",
          "name": "fee",
          "type": "uint256"
        }
      ],
      "name": "PayOff",
      "type": "event"
    },
    {
      "anonymous": false,
      "inputs": [
        {
          "indexed": true,
          "internalType": "address",
          "name": "user",
          "type": "address"
        },
        {
          "indexed": false,
          "internalType": "uint256",
          "name": "etherAmount",
          "type": "uint256"
        },
        {
          "indexed": false,
          "internalType": "uint256",
          "name": "depositTime",
          "type": "uint256"
        },
        {
          "indexed": false,
          "internalType": "uint256",
          "name": "interest",
          "type": "uint256"
        }
      ],
      "name": "Withdraw",
      "type": "event"
    },
    {
      "inputs": [
        {
          "internalType": "address",
          "name": "",
          "type": "address"
        }
      ],
      "name": "collateralEth",
      "outputs": [
        {
          "internalType": "uint256",
          "name": "",
          "type": "uint256"
        }
      ],
      "stateMutability": "view",
      "type": "function"
    },
    {
      "inputs": [
        {
          "internalType": "address",
          "name": "",
          "type": "address"
        }
      ],
      "name": "ethBal",
      "outputs": [
        {
          "internalType": "uint256",
          "name": "",
          "type": "uint256"
        }
      ],
      "stateMutability": "view",
      "type": "function"
    },
    {
      "inputs": [
        {
          "internalType": "address",
          "name": "",
          "type": "address"
        }
      ],
      "name": "interestStart",
      "outputs": [
        {
          "internalType": "uint256",
          "name": "",
          "type": "uint256"
        }
      ],
      "stateMutability": "view",
      "type": "function"
    },
    {
      "inputs": [
        {
          "internalType": "address",
          "name": "",
          "type": "address"
        }
      ],
      "name": "isDeposited",
      "outputs": [
        {
          "internalType": "bool",
          "name": "",
          "type": "bool"
        }
      ],
      "stateMutability": "view",
      "type": "function"
    },
    {
      "inputs": [
        {
          "internalType": "address",
          "name": "",
          "type": "address"
        }
      ],
      "name": "isLoaned",
      "outputs": [
        {
          "internalType": "bool",
          "name": "",
          "type": "bool"
        }
      ],
      "stateMutability": "view",
      "type": "function"
    },
    {
      "inputs": [],
      "name": "deposit",
      "outputs": [],
      "stateMutability": "payable",
      "type": "function"
    },
    {
      "inputs": [],
      "name": "withdraw",
      "outputs": [],
      "stateMutability": "nonpayable",
      "type": "function"
    }
  ],
  "bytecode": "0x60806040523480156200001157600080fd5b5060405162000ef338038062000ef38339818101604052810190620000379190620000fc565b806000806101000a81548173ffffffffffffffffffffffffffffffffffffffff021916908373ffffffffffffffffffffffffffffffffffffffff160217905550506200012e565b600080fd5b600073ffffffffffffffffffffffffffffffffffffffff82169050919050565b6000620000b08262000083565b9050919050565b6000620000c482620000a3565b9050919050565b620000d681620000b7565b8114620000e257600080fd5b50565b600081519050620000f681620000cb565b92915050565b6000602082840312156200011557620001146200007e565b5b60006200012584828501620000e5565b91505092915050565b610db5806200013e6000396000f3fe6080604052600436106100705760003560e01c8063291150121161004e578063291150121461012c5780633ccfd60b146101695780637373202414610180578063d0e30db0146101bd57610070565b806308f66a8d1461007557806312ddec06146100b257806322bd0716146100ef575b600080fd5b34801561008157600080fd5b5061009c6004803603810190610097919061093c565b6101c7565b6040516100a99190610984565b60405180910390f35b3480156100be57600080fd5b506100d960048036038101906100d4919061093c565b6101e7565b6040516100e691906109b8565b60405180910390f35b3480156100fb57600080fd5b506101166004803603810190610111919061093c565b6101ff565b60405161012391906109b8565b60405180910390f35b34801561013857600080fd5b50610153600480360381019061014e919061093c565b610217565b60405161016091906109b8565b60405180910390f35b34801561017557600080fd5b5061017e61022f565b005b34801561018c57600080fd5b506101a760048036038101906101a2919061093c565b610616565b6040516101b49190610984565b60405180910390f35b6101c5610636565b005b60056020528060005260406000206000915054906101000a900460ff1681565b60016020528060005260406000206000915090505481565b60026020528060005260406000206000915090505481565b60036020528060005260406000206000915090505481565b60011515600460003373ffffffffffffffffffffffffffffffffffffffff1673ffffffffffffffffffffffffffffffffffffffff16815260200190815260200160002060009054906101000a900460ff161515146102c2576040517f08c379a00000000000000000000000000000000000000000000000000000000081526004016102b990610a30565b60405180910390fd5b6000600160003373ffffffffffffffffffffffffffffffffffffffff1673ffffffffffffffffffffffffffffffffffffffff1681526020019081526020016000205490506000600260003373ffffffffffffffffffffffffffffffffffffffff1673ffffffffffffffffffffffffffffffffffffffff16815260200190815260200160002054426103539190610a7f565b90506000662386f26fc10000600160003373ffffffffffffffffffffffffffffffffffffffff1673ffffffffffffffffffffffffffffffffffffffff168152602001908152602001600020546103a99190610ae2565b62f1ed306103b79190610b13565b9050600082826103c79190610b13565b90503373ffffffffffffffffffffffffffffffffffffffff166108fc600160003373ffffffffffffffffffffffffffffffffffffffff1673ffffffffffffffffffffffffffffffffffffffff168152602001908152602001600020549081150290604051600060405180830381858888f1935050505015801561044e573d6000803e3d6000fd5b5060008054906101000a900473ffffffffffffffffffffffffffffffffffffffff1673ffffffffffffffffffffffffffffffffffffffff166340c10f1933836040518363ffffffff1660e01b81526004016104aa929190610b7c565b600060405180830381600087803b1580156104c457600080fd5b505af11580156104d8573d6000803e3d6000fd5b505050506000600260003373ffffffffffffffffffffffffffffffffffffffff1673ffffffffffffffffffffffffffffffffffffffff168152602001908152602001600020819055506000600160003373ffffffffffffffffffffffffffffffffffffffff1673ffffffffffffffffffffffffffffffffffffffff168152602001908152602001600020819055506000600460003373ffffffffffffffffffffffffffffffffffffffff1673ffffffffffffffffffffffffffffffffffffffff16815260200190815260200160002060006101000a81548160ff0219169083151502179055503373ffffffffffffffffffffffffffffffffffffffff167f02f25270a4d87bea75db541cdfe559334a275b4a233520ed6c0a2429667cca9485858460405161060893929190610ba5565b60405180910390a250505050565b60046020528060005260406000206000915054906101000a900460ff1681565b60001515600460003373ffffffffffffffffffffffffffffffffffffffff1673ffffffffffffffffffffffffffffffffffffffff16815260200190815260200160002060009054906101000a900460ff161515146106c9576040517f08c379a00000000000000000000000000000000000000000000000000000000081526004016106c090610c4e565b60405180910390fd5b662386f26fc10000341015610713576040517f08c379a000000000000000000000000000000000000000000000000000000000815260040161070a90610ce0565b60405180910390fd5b34600160003373ffffffffffffffffffffffffffffffffffffffff1673ffffffffffffffffffffffffffffffffffffffff1681526020019081526020016000205461075e9190610d00565b600160003373ffffffffffffffffffffffffffffffffffffffff1673ffffffffffffffffffffffffffffffffffffffff1681526020019081526020016000208190555042600260003373ffffffffffffffffffffffffffffffffffffffff1673ffffffffffffffffffffffffffffffffffffffff168152602001908152602001600020546107ec9190610d00565b600260003373ffffffffffffffffffffffffffffffffffffffff1673ffffffffffffffffffffffffffffffffffffffff168152602001908152602001600020819055506001600460003373ffffffffffffffffffffffffffffffffffffffff1673ffffffffffffffffffffffffffffffffffffffff16815260200190815260200160002060006101000a81548160ff0219169083151502179055503373ffffffffffffffffffffffffffffffffffffffff167f90890809c654f11d6e72a28fa60149770a0d11ec6c92319d6ceb2bb0a4ea1a1534426040516108cf929190610d56565b60405180910390a2565b600080fd5b600073ffffffffffffffffffffffffffffffffffffffff82169050919050565b6000610909826108de565b9050919050565b610919816108fe565b811461092457600080fd5b50565b60008135905061093681610910565b92915050565b600060208284031215610952576109516108d9565b5b600061096084828501610927565b91505092915050565b60008115159050919050565b61097e81610969565b82525050565b60006020820190506109996000830184610975565b92915050565b6000819050919050565b6109b28161099f565b82525050565b60006020820190506109cd60008301846109a9565b92915050565b600082825260208201905092915050565b7f4552524f522e204e4f204445504f534954532048415645204f43435552524544600082015250565b6000610a1a6020836109d3565b9150610a25826109e4565b602082019050919050565b60006020820190508181036000830152610a4981610a0d565b9050919050565b7f4e487b7100000000000000000000000000000000000000000000000000000000600052601160045260246000fd5b6000610a8a8261099f565b9150610a958361099f565b925082821015610aa857610aa7610a50565b5b828203905092915050565b7f4e487b7100000000000000000000000000000000000000000000000000000000600052601260045260246000fd5b6000610aed8261099f565b9150610af88361099f565b925082610b0857610b07610ab3565b5b828204905092915050565b6000610b1e8261099f565b9150610b298361099f565b9250817fffffffffffffffffffffffffffffffffffffffffffffffffffffffffffffffff0483118215151615610b6257610b61610a50565b5b828202905092915050565b610b76816108fe565b82525050565b6000604082019050610b916000830185610b6d565b610b9e60208301846109a9565b9392505050565b6000606082019050610bba60008301866109a9565b610bc760208301856109a9565b610bd460408301846109a9565b949350505050565b7f4552524f522e2041204445504f53495420495320414c5245414459204143544960008201527f5645000000000000000000000000000000000000000000000000000000000000602082015250565b6000610c386022836109d3565b9150610c4382610bdc565b604082019050919050565b60006020820190508181036000830152610c6781610c2b565b9050919050565b7f4552524f522e20504c4541534520454e5445522041204d494e494d554d204f4660008201527f20302e3031455448000000000000000000000000000000000000000000000000602082015250565b6000610cca6028836109d3565b9150610cd582610c6e565b604082019050919050565b60006020820190508181036000830152610cf981610cbd565b9050919050565b6000610d0b8261099f565b9150610d168361099f565b9250827fffffffffffffffffffffffffffffffffffffffffffffffffffffffffffffffff03821115610d4b57610d4a610a50565b5b828201905092915050565b6000604082019050610d6b60008301856109a9565b610d7860208301846109a9565b939250505056fea2646970667358221220469bb2f98c4a3807d3dd047589b7cfa701e79a4e2c68fe7d1d1f94e9f1b5a4bd64736f6c634300080d0033",
  "immutableReferences": {},
  "source": "pragma solidity 0.8.13;\r\n\r\nimport \"./Token.sol\";\r\n\r\ncontract Defi {\r\n\r\n  //Token initialization\r\n  Token private token;\r\n\r\n  //Ethereum balance\r\n  mapping(address => uint) public ethBal;\r\n  //Beginning of interest\r\n  mapping(address => uint) public interestStart;\r\n  mapping(address => uint) public collateralEth;\r\n  //Deposit status\r\n  mapping(address => bool) public isDeposited;\r\n  //Loan status\r\n  mapping(address => bool) public isLoaned;\r\n\r\n  event Deposit(address indexed user, uint etherAmount, uint timeStart);\r\n  event Withdraw(address indexed user, uint etherAmount, uint depositTime, uint interest);\r\n  event Borrow(address indexed user, uint collateralEthAmount, uint borrowedTokenAmount);\r\n  event PayOff(address indexed user, uint fee);\r\n\r\n  //Deployed token\r\n  constructor(Token _token) public {\r\n    token = _token;\r\n  }\r\n\r\n  //Deposit ETH\r\n  function deposit() payable public {\r\n    //One deposit at a time\r\n    require(isDeposited[msg.sender] == false, 'ERROR. A DEPOSIT IS ALREADY ACTIVE');\r\n    //Minimum eth deposit\r\n    //1e16 WEI\r\n    require(msg.value>=1e16, 'ERROR. PLEASE ENTER A MINIMUM OF 0.01ETH');\r\n\r\n    //Update eth balance \r\n    ethBal[msg.sender] = ethBal[msg.sender] + msg.value;\r\n    //Update beginning of interest\r\n    interestStart[msg.sender] = interestStart[msg.sender] + block.timestamp;\r\n\r\n    //Return deposit transaction information\r\n    isDeposited[msg.sender] = true;\r\n    emit Deposit(msg.sender, msg.value, block.timestamp);\r\n  }\r\n\r\n  function withdraw() public {\r\n    //Can only withdraw if previous deposits exist\r\n    require(isDeposited[msg.sender]==true, 'ERROR. NO DEPOSITS HAVE OCCURRED');\r\n    //Event\r\n    uint userBalance = ethBal[msg.sender];\r\n\r\n    //Time since initial deposit\r\n    uint depositTime = block.timestamp - interestStart[msg.sender];\r\n\r\n    //5e15(5% of 0.01 ETH) / 31 536 000 (seconds in 1 year)\r\n    uint interestPerSecond = 15854896 * (ethBal[msg.sender] / 1e16);\r\n    uint interest = interestPerSecond * depositTime;\r\n\r\n    //Withdraw funds\r\n    payable(msg.sender).transfer(ethBal[msg.sender]);\r\n    //Plus interest\r\n    token.mint(msg.sender, interest);\r\n\r\n    //Reset deposit\r\n    interestStart[msg.sender] = 0;\r\n    ethBal[msg.sender] = 0;\r\n    isDeposited[msg.sender] = false;\r\n\r\n    emit Withdraw(msg.sender, userBalance, depositTime, interest);\r\n  }\r\n\r\n  //function borrow() payable public {}\r\n\r\n  //function payOff() public {}\r\n}",
  "sourcePath": "C:\\Users\\Ajay\\Documents\\repos\\CMPE 183\\183Project\\contracts\\Defi.sol",
  "compiler": {
    "name": "solc",
    "version": "0.8.13+commit.abaa5c0e.Emscripten.clang"
  },
  "schemaVersion": "3.4.7",
  "updatedAt": "2022-05-14T13:30:17.490Z",
  "devdoc": {
    "kind": "dev",
    "methods": {},
    "version": 1
  },
  "userdoc": {
    "kind": "user",
    "methods": {},
    "version": 1
  }
}